:020000040800F2
:10000000581200204901000851010008530100085E
:1000100055010008570100085901000800000000C0
:100020000000000000000000000000005B0100086C
:100030005D010008000000003B8D00083F8D0008B6
:100040006301000863010008630100086301000800
:1000500063010008630100086301000863010008F0
:1000600063010008630100086301000863010008E0
:1000700063010008630100086301000863010008D0
:1000800063010008630100086301000863010008C0
:1000900063010008630100086301000863010008B0
:1000A00063010008630100086301000863010008A0
:1000B00063010008DB5100086301000863010008C8
:1000C0006301000863010008630100086301000880
:1000D00063010008E9580008D55A00081D5D0008B2
:1000E0006301000863010008630100086301000860
:1000F0006301000863010008630100086301000850
:10010000630100086301000863010008630100083F
:1001100063010008975E000863010008630100089E
:10012000630100086301000863010008630100081F
:10013000DFF810D009F030FA004800472D220008FF
:10014000AFF3008058120020064880470648004759
:10015000FEE7FEE7FEE7FEE7FEE7FEE7FEE7FEE777
:10016000FEE7FEE715020008310100080CB5002289
:10017000019200925248016841F4803101604FF4CD
:10018000A063016801F4003100910199491C0191BB
:10019000009911B901999942F3D10168890302D5F7
:1001A0000121009100E000920099012930D14549D8
:1001B0000A6842F010020A600A6822F003020A602C
:1001C0000A6842F002020A60416841604168416089
:1001D000416841F480614160416821F47C114160D3
:1001E000416841F4E8114160016841F080710160AB
:1001F00001688901FCD5416821F003014160416833
:1002000041F0020141604168C1F381010229FAD144
:100210000CBDABE710B52A48016841F0010101604F
:100220004168294A114041600168284A1140016033
:10023000016821F480210160416821F4FE014160E0
:100240004FF41F018160FFF7E4FF21494FF0006088
:10025000086010BD10B51A4A506800F00C011D4B23
:100260001D4800290ED004290ED008290ED00360A5
:100270005168194AC1F30311121D515C0268CA404A
:10028000026010BD0360F3E70360F1E7516801F419
:100290007011536803F48033022404EB914133B1AD
:1002A00053689B0307D50D4B59430160E0E70B4BA7
:1002B00059430160DCE7074B59430160D8E7000070
:1002C00000100240002002400000FFF8FFFFF6FE91
:1002D00008ED00E000127A000000002000093D0057
:1002E0002A4908432A490860704770B50F23C2782D
:1002F00001260178002A1ED0254A126802F4E06225
:10030000C2F5E062120AC2F10404D3404578A54068
:1003100082781A402A43120101F1E02181F8002479
:10032000007800F01F018E404009800000F1E020BD
:10033000C0F8006170BD01F01F00864048098000D0
:1003400000F1E020C0F8806170BD124A1140014305
:100350000F48001F016070470D4A121D002903D08D
:100360001168014311607047116881431160704743
:100370004FF0E021042804D0086920F0040008614F
:100380007047086940F00400086170470000FA05F2
:100390000CED00E080FFFF1F10B59C49884209D199
:1003A0000121042000F07DFA0021BDE81040042066
:1003B00000F077BA9649884209D10121082000F05F
:1003C00070FA0021BDE81040082000F06ABA914997
:1003D000884209D10121102000F063FA0021BDE814
:1003E0001040102000F05DBA8B49884209D10121EC
:1003F000202000F056FA0021BDE81040202000F037
:1004000050BA8649884209D10121402000F049FABA
:100410000021BDE81040402000F043BA80498842E6
:1004200009D10121802000F03CFA0021BDE81040F4
:10043000802000F036BA7B4988420AD18415012118
:10044000204600F02EFA2046BDE81040002100F0C2
:1004500028BA10BD10B50121084600F022FA00218B
:10046000BDE81040012000F01CBA2DE9F041002247
:10047000CC7804F00F03E40601D58C7823430C7884
:100480004FF00F0714F0FF0F4FF0010C1CD0056860
:100490000CFA02F40E882640A64211D1960007FA03
:1004A00006F825EA080503FA06F848EA0505CE78B5
:1004B000282E02D0482E02D002E0446100E0046100
:1004C000521C082AE4D305600A88FF2A1ED9456811
:1004D000002202F108060CFA06F40E882640A64215
:1004E00010D1960007FA06F825EA080503FA06F87F
:1004F00048EA0505CE78282E00D14461CE78482EF2
:1005000000D10461521C082AE3D34560BDE8F081A4
:100510004FF6FF710180022181700421C170704784
:100520000246002092680A4200D00120704780688D
:1005300080B2704702460020D2680A4200D00120F3
:100540007047C06880B27047016170474161704771
:10055000002A01D00161704741617047C160704756
:1005600041F4803282618161826181698069704772
:1005700010B52D4B1A684FF68074224042EA0010E5
:100580000843186010BD2949C8617047F0B5264C72
:10059000002801DAE36900E06368C0F30346420D16
:1005A000120185B2C0F301579540032F07D0C20254
:1005B0000CD50322B240934343F0706209E023F06C
:1005C0007062636823F07063636002E0AB4343F0E2
:1005D000706201B12A43002801DAE261F0BD626075
:1005E000F0BD10B58A07120F0F23934021F00304CA
:1005F0000D4921448C689C438C608B689040034378
:100600008B6010BD0949DC3108607047000801406B
:10061000000C01400010014000140140001801408E
:10062000001C014000200140000001400000204269
:10063000B448016841F0010101604168B24A1140CB
:1006400041600168B14A11400160016821F48021D4
:100650000160416821F4FE0141604FF41F01816097
:100660007047A8490A6822F480320A600A6822F4B6
:1006700080220A60B0F5803F07D0B0F5802F03D10B
:10068000086840F4A02008607047086840F4803093
:10069000086070470346002059099A4A01290AD088
:1006A00002290AD0516A03F01F02012393400B4232
:1006B00000D0012070471168F5E7116AF3E718B51B
:1006C000002000904FF4A0643120FFF7E3FF009971
:1006D000491C00910099A14201D00028F4D031209A
:1006E000FFF7D8FF08B1012018BD002018BD854ACA
:1006F000116821F0F80141EAC00010607047844998
:10070000086070477F4B5A6822F47C1208431043FC
:10071000586070477E49086670477A4A516821F0F0
:1007200003010143516070477648406800F00C00B7
:100730007047744A516821F0F001014351607047DD
:10074000704A516821F4E0610143516070476D4A7D
:10075000516821F4605141EAC00050607047694A15
:10076000002903D0517A014351727047517A814375
:10077000517270476649D83108607047614A5168C4
:1007800021F440410143516070475E49002220310D
:100790000A7001F82029012805D0042802D105207B
:1007A00081F820007047012081F8200070475949E6
:1007B0000860704753490A6A02430A627047554904
:1007C00044390860704710B54E4A516801F00C0179
:1007D000514B002927D0042927D0082927D00360AE
:1007E000516801F0F00109094C4B5C5C0168E14083
:1007F0004160546804F4E064240A1C5D21FA04F4A6
:100800008460546804F46054E40A1B5DD940C160FC
:10081000526802F44042920B404B1B1F9A5CB1FBA2
:10082000F2F1016110BD0360DAE70360D8E75168B7
:1008300001F47011536803F48033022404EB9141F6
:1008400033B153689B0307D5354B59430160C7E764
:10085000334B59430160C3E72F4B59430160BFE756
:10086000284A002903D051690143516170475169F9
:10087000814351617047234A002903D091690143A4
:100880009161704791698143916170471D4A0029C8
:1008900003D0D1690143D1617047D1698143D161EE
:1008A0007047184A002903D0D1680143D1607047CE
:1008B000D1688143D1607047124A002903D0116981
:1008C00001431161704711698143116170471149FA
:1008D0004039086070470E49C86470470949C871BB
:1008E00070470848416A41F0807141627047014693
:1008F0000020044A92680A4200D001207047014952
:1009000088727047001002400000FFF8FFFFF6FEFB
:10091000000042428004424200127A001800002087
:1009200000093D0010B5A94988420AD1841401216B
:100930002046FFF7B6FF2046BDE810400021FFF734
:10094000B0BFA34988420AD1041401212046FFF711
:10095000B3FF2046BDE810400021FFF7ADBF9D4921
:1009600088420AD1C41301212046FFF7A5FF204683
:10097000BDE810400021FFF79FBF10BD30B50288D1
:1009800002F441530A884C88CD8822438C882C433A
:1009900022430C8922434C8922438C892243CC89EF
:1009A00022431A430280828B22F400628283098AE6
:1009B000018230BDF0B585B005460C46022000210D
:1009C0000126AA8B4FF240031A40AA8302222A84EE
:1009D000AF8BA268022A21D0A08800B10226684607
:1009E000FFF7F1FE0098E188B1F5007F2CD071018E
:1009F000B0FBF1F000EB8000A1684000B0FBF1F02B
:100A0000401D80B20A21B0FBF1F000F00101401A54
:100A1000C0F34F004FF6FF7202EA0121821EFE2A48
:100A200001D302200021E288084302432A8420885F
:100A30006188A2890843A18811430843384340F4E0
:100A40000060A88305B0F0BD000A00EB8000A1683B
:100A50004000B0FBF1F0401D80B2D3E700210180DF
:100A600041808180C180018141818181C1810721D3
:100A7000018270470021018041808180C180022273
:100A8000826081817047002904D0018841F04001D3
:100A900001807047018821F04001018070470029E2
:100AA00004D0818B41F4806181837047818B21F474
:100AB000806181837047090901238B4099B2002A24
:100AC00003D082880A438280704782888A4382806A
:100AD0007047002A03D082880A4382807047828848
:100AE0008A43828070478181704780897047A1F571
:100AF0007E42FF3A04D0018841F480710180704742
:100B0000018821F4807101807047002904D0818818
:100B100041F0040181807047818821F004018180C7
:100B20007047028822F40062028002880A43028031
:100B30007047018841F4805101807047002904D03A
:100B4000018841F4005101807047018821F400516F
:100B500001807047012901D0008B7047808A70475F
:100B6000008A7047B1F5804F04D0018821F480419C
:100B700001807047018841F480410180704702463E
:100B8000002012890A4200D001207047C943018128
:100B9000704730B50246002001F00F03012505FA29
:100BA00003F4A3B2090905FA01F4A4B29188214023
:100BB00012891A4202D0002900D0012030BD01F074
:100BC0000F0201219140C94301817047003001406B
:100BD00000380040003C004010B5FE4988420AD170
:100BE000C41401212046FFF75CFE2046BDE81040FA
:100BF0000021FFF756BEB0F1804F0CD0F649884275
:100C000013D101210220FFF757FE0021BDE810405B
:100C10000220FFF751BE01210846FFF74DFE0021DB
:100C2000BDE810400120FFF747BEEC49884209D1DA
:100C300001210420FFF740FE0021BDE81040042000
:100C4000FFF73ABEE649884209D101210820FFF7A3
:100C500033FE0021BDE810400820FFF72DBEE1491A
:100C6000884209D101211020FFF726FE0021BDE8AE
:100C700010401020FFF720BEDB49884209D1012136
:100C80002020FFF719FE0021BDE810402020FFF7CB
:100C900013BED64988420AD1441401212046FFF7E9
:100CA00000FE2046BDE810400021FFF7FABDD04904
:100CB00088420AD10121CC042046FFF7F2FD2046EC
:100CC000BDE810400021FFF7ECBDCA4988420AD1B7
:100CD00001210C052046FFF7E4FD2046BDE8104049
:100CE0000021FFF7DEBDC44988420AD101214C052D
:100CF0002046FFF7D6FD2046BDE810400021FFF753
:100D0000D0BDBE49884209D101214020FFF7D4FD62
:100D10000021BDE810404020FFF7CEBDB849884211
:100D200009D101218020FFF7C7FD0021BDE8104057
:100D30008020FFF7C1BDB34988420AD18415012143
:100D40002046FFF7B9FD2046BDE810400021FFF71F
:100D5000B3BDAD4988420AD101210C042046FFF7FA
:100D6000A0FD2046BDE810400021FFF79ABDA7492D
:100D700088420AD101214C042046FFF792FD20460B
:100D8000BDE810400021FFF78CBDA14988420AD17F
:100D900001218C042046FFF784FD2046BDE8104069
:100DA0000021FFF77EBD10BD30B50288894C8F4D04
:100DB000A0420DD0A8420BD0B0F1804F08D0864B96
:100DC000984205D0854B984202D0854B984203D17A
:100DD00022F070034A881A43824B984206D0824B15
:100DE000984203D022F44073CA881A4302808A884A
:100DF00082850A880285A0420AD0A84208D0824A89
:100E0000904205D0814A904202D0814A904201D15D
:100E1000097A01860121818230BD30B5028C22F031
:100E200001020284028C8388048B24F0700424F075
:100E300003050C882C4322F002020D8915434A88D1
:100E40002A43644DA8420BD0684DA84208D06E4D8D
:100E5000A84205D06D4DA84202D06D4DA8420FD1D9
:100E600022F008054A892A4322F004058A882A4389
:100E700023F4807323F400738D891D43CB892B43A6
:100E800083800483C9888186028430BD70B5028C5A
:100E900022F010020284028C8388048B24F4E04444
:100EA00024F440760D884FF6FF7404EA0525354397
:100EB00022F020020E8904EA061616434A8804EA44
:100EC00002123243434EB04202D0484EB04217D1D4
:100ED00022F080024E8904EA0616164326F04006E8
:100EE0008A8804EA0212324323F4806323F4006305
:100EF0008E8904EA86061E43CB8904EA83033343C2
:100F000083800583C9880187028470BD70B5028C17
:100F100022F480720284028C8388848B24F0700413
:100F200024F003040D88254322F400720E894FF645
:100F3000FF7404EA062616434A8804EA0222324372
:100F4000244EB04202D0294EB04217D122F400669E
:100F50004A8904EA0222324322F480668A8804EA3B
:100F60000222324323F4805323F400538E8904EA8F
:100F700006161E43CB8904EA03133343838085831B
:100F8000C9888187028470BD70B5028C22F48052BA
:100F90000284058C8288838B23F4E04323F440761B
:100FA0000C884FF6FF7303EA0424344325F40055FC
:100FB0000E8903EA06362E434D8803EA053535438C
:100FC000044EB04202D0094EB04226D122F48046EF
:100FD0008A891FE0002C0140000400400008004006
:100FE000000C00400010004000140040003401409C
:100FF000004C0140005001400054014000180040E6
:10100000001C00400020004000400140004401401E
:101010000048014003EA8212324382808483C988F7
:10102000A0F84010058470BD828B22F44062828358
:10103000828B4FF6FF7303EA01210A4382837047D4
:10104000F0B5048C24F480540484868B048C4FF611
:10105000FF7505EA013726F4734605EA022232439A
:1010600005EA03331343F74A90420ED0F64A904202
:101070000BD0B0F1804F08D0F44A904205D0F44A2A
:10108000904202D0F34A904205D124F400513943F2
:1010900041F4805104E024F402420A4342F48051B6
:1010A00083830184F0BD828B22F00C028283828BC9
:1010B0000A4382837047F0B5048C24F4807404845E
:1010C000858B048C4FF6FF7707EA012625F0F305A0
:1010D00007EA031313432B43DA4A90420ED0DA4A4D
:1010E00090420BD0B0F1804F08D0D84A904205D042
:1010F000D74A904202D0D74A904205D124F40071D9
:10110000314341F4807104E024F420620A4342F444
:10111000807183830184F0BD028B22F440620283DC
:10112000028B4FF6FF7303EA01210A4302837047E3
:10113000F0B5048C24F010040484068B048C4FF664
:10114000FF7505EA011726F4734605EA03333343B6
:1011500005EA02221A43BB4B98420ED0BA4B984282
:101160000BD0B0F1804F08D0B84B984205D0B84BA7
:10117000984202D0B74B984205D124F02001394360
:1011800041F0100104E024F0A0030B4343F01001F0
:1011900002830184F0BD028B22F00C020283028BD9
:1011A0000A430283704770B5048C24F00104048460
:1011B000058B048C25F0F3054FF6FF7606EA031342
:1011C00013432B439F4A90420ED09F4A90420BD02C
:1011D000B0F1804F08D09D4A904205D09C4A904281
:1011E00002D09C4A904205D124F002020A4342F008
:1011F000010104E024F00A020A4342F001010383E2
:10120000018470BD70B505460C468E48854209D0F4
:101210008D48854206D0B5F1804F03D08B4885427A
:1012200000D08B4820886188A288238958B104287F
:1012300011D0082817D02846FFF702FFE18828467A
:10124000BDE87040F0E62846FFF7ADFFE18828468C
:10125000BDE870409FE72846FFF76AFFE18828460F
:10126000BDE8704058E72846FFF725FFE18828468B
:10127000BDE8704017E72DE9F04107460C46002510
:1012800001266188002900D10225A288012A00D107
:1012900002262088238988B13846FFF749FFE18874
:1012A0003846FFF739FF2389324629463846FFF78B
:1012B0007AFFE1883846BDE8F0416CE73846FFF731
:1012C00072FFE1883846FFF766FF238932462946D8
:1012D0003846FFF72DFFE1883846BDE8F0411BE7AF
:1012E00010B50A884B88CC881A438B8823431A434D
:1012F0000B891A434B8989891A430A43A0F8442071
:1013000010BD4FF6FF71818000210180C1804180B6
:10131000017270470021018041808180C18001817C
:1013200041818181C181704700210180418001227A
:101330008280C180018170470021018041808180CD
:10134000C1800181418181817047002904D00188D9
:1013500041F0010101807047018821F00101018005
:101360007047002905D030F8441F41F40041018046
:10137000704730F8441FC1F30E0101807047002A06
:1013800003D082890A438281704782898A4382819D
:101390007047818270471143A0F848107047002AB7
:1013A00003D082890A438281704782898A4382817D
:1013B0007047018921F0070101817047028922F0FD
:1013C00070020A430281704700B503461846FFF7D2
:1013D000F5FF188940F00700188100BD70B50D4673
:1013E00004461146602D0CD001222046FFF7DBFE9B
:1013F00029462046FFF7E2FF208940F007002081C0
:1014000070BD01222046FFF793FEF1E730B5048955
:10141000E4B24FF6FF7505EA032313430B4323435E
:10142000038130BD10B504462046FFF7EFFF208949
:1014300020F0070040F0070020F0700040F070003E
:10144000208110BD002C0140003401400004004008
:1014500000080040000C004010B504462046FFF78D
:10146000D5FF208940F480402081EAE7018582820F
:101470007047028822F070020A430280704770B5FC
:101480000589048B068C25F007050D434FF6FC41BA
:101490000C4040F201110C4326F022064FF6FF717A
:1014A00001EA03111143314305810483018470BDB6
:1014B000028B22F070020A4302837047028B22F4EF
:1014C000E0424FF6FF7303EA0121114301837047A5
:1014D000828B22F070020A4382837047828B22F44F
:1014E000E0424FF6FF7303EA012111438183704705
:1014F000002904D0018841F08001018070470188F3
:1015000021F0800101807047002904D0818841F0DA
:10151000040181807047818821F004018180704737
:10152000002904D0818841F00801818070478188BA
:1015300021F0080181807047002904D0818841F0A2
:10154000010181807047818821F00101818070470D
:10155000028B22F008020A4302837047028B22F4B6
:1015600000624FF6FF7303EA0121114301837047C4
:10157000828B22F008020A4382837047828B22F416
:1015800000624FF6FF7303EA012111438183704724
:10159000028B22F004020A4302837047028B22F47A
:1015A00080624FF6FF7303EA012111430183704704
:1015B000828B22F004020A4382837047828B22F4DA
:1015C00080624FF6FF7303EA012111438183704764
:1015D000028B22F080020A4302837047028BC2F31F
:1015E0000E024FF6FF7303EA012111430183704796
:1015F000828B22F080020A4382837047828BC2F37F
:101600000E024FF6FF7303EA0121114381837047F5
:10161000028C22F002020A4302847047028C22F0FC
:1016200008020A4302847047028C22F020024FF61F
:10163000FF7303EA0111114301847047028C22F009
:1016400080024FF6FF7303EA0111114301847047D2
:10165000028C22F400724FF6FF7303EA012111435A
:1016600001847047028C22F400624FF6FF7303EA94
:101670000121114301847047028C22F400524FF67D
:10168000FF7303EA013111430184704710B5012350
:101690008B40048C9C430484038C8A401343038452
:1016A000CFE610B504238B40048C9C430484038C48
:1016B0008A4013430384C4E630B500F118030124C3
:1016C0008C40058CA5430584002911D008290FD032
:1016D000091FC1F34E001844016821F4E041016084
:1016E00001684FF6FF7303EA02221143016030BD27
:1016F00003EB5100016821F07001016001681143A2
:10170000016030BD002904D0018841F00201018050
:101710007047018821F0020101807047002904D040
:10172000018841F0040101807047018821F0040123
:1017300001807047002904D0818841F080018180B8
:101740007047818821F0800181807047028822F0F3
:101750000802028002880A4302807047828822F0D1
:101760007002828082880A4382807047028922F058
:101770000702028102890A4302817047028922F02E
:101780008002028102890A43028170478184704786
:1017900081857047818670470187704781877047D0
:1017A000A0F840107047028822F44072028002883C
:1017B0000A4302807047808E7047008F7047808F89
:1017C0007047B0F840007047808C7047008D7047BC
:1017D00002460020128A0A4200D001207047C94305
:1017E0000182704702460020138A0B4092890A400A
:1017F000002B02D0002A00D001207047C94301828B
:101800007047000010B5E14988420AD101218C03DC
:101810002046FFF746F82046BDE810400021FFF7BC
:1018200040B8DB4988420AD101214C042046FFF729
:1018300043F82046BDE810400021FFF73DB8D549E8
:1018400088420AD101218C042046FFF735F8204652
:10185000BDE810400021FFF72FB8CF4988420AD1D8
:101860000121CC042046FFF727F82046BDE81040B0
:101870000021FFF721B8C94988420AD101210C058E
:101880002046FFF719F82046BDE810400021FFF779
:1018900013B810BD30B585B004460D46208A4CF60D
:1018A000FF710840E98801432182A0894EF6F311B7
:1018B0000840A9882A8911436A8902431143A181FA
:1018C000A08A4FF6FF410840A9890143A1826846DA
:1018D000FEF779FFAD48844201D1039800E00298F9
:1018E000A189090408D500EBC00101EB00102968AB
:1018F0004900B0FBF1F007E000EBC00101EB001084
:1019000029688900B0FBF1F06422B0FBF2F1090113
:101910000B096FF018056B4300EB8300A3891D04CE
:101920004FF0320307D503EBC000B0FBF2F000F03C
:101930000700084306E003EB0010B0FBF2F000F0F4
:101940000F000843208105B030BD4FF416510160EF
:1019500000218180C18001810C22428181817047F8
:1019600010B5038A4FF2FF0213400A884C882243C5
:101970008C88C9880C4322431A43028210BD00217F
:10198000018041808180C1807047002904D0818915
:1019900041F4005181817047818921F40051818196
:1019A000704710B540F66A13C1F3421301F01F04EB
:1019B0000121A140012B07D0022B07D014303AB1EE
:1019C00002680A43026010BD0C30F8E71030F6E7F9
:1019D00002688A43026010BD002A03D0828A0A434B
:1019E00082827047828A8A4382827047028A22F00A
:1019F0000F020282028A0A4302827047828922F41D
:101A00000062828182890A4382817047002904D062
:101A1000818941F0020181817047818921F00201B1
:101A200081817047028A22F020020282028A0A43E0
:101A300002827047002904D0018A41F4804101826A
:101A40007047018A21F4804101827047C1F3080187
:101A5000818070478088C0F308007047818941F019
:101A6000010181817047028BD2B20283028B42EA6C
:101A7000012101837047028B02F47F420283028BB3
:101A80000A4302837047002904D0818A41F0200173
:101A900081827047818A21F020018182704700296C
:101AA00004D0818A41F0100181827047818A21F03F
:101AB000100181827047002904D0818A41F0080119
:101AC00081827047818A21F0080181827047002954
:101AD00004D0818941F40041818170478189C1F33B
:101AE0000E0181817047002904D0818A41F4006190
:101AF00081827047818A21F4006181827047828AE5
:101B000022F004028282828A0A438282704700297C
:101B100004D0818A41F0020181827047818A21F0DC
:101B20000201818270470246002012880A4200D0DA
:101B3000012070478A05C9430180704770B50024B1
:101B400040F66A12C1F3421301F01F05012606FA9E
:101B500005F2012B0CD0022B0DD0838A1340090A09
:101B60008E40008830400BB100B10124204670BD8A
:101B700083891340F3E7038A1340F0E740F66A12C3
:101B80000A0A01219140C943018070470038014091
:101B90000044004000480040004C0040005000401D
:101BA0002DE9FF5F0026029603960121F448FFF716
:101BB000CCFB002002F033FAF2A23C21782002F0A4
:101BC0003AFCF2A26421542002F035FCF4A2782100
:101BD000142002F030FCF9A2A021142002F02BFC0A
:101BE000FD4808F09DFB07F02DFADFF8F083C8F8F8
:101BF0002800F948183008F093FB07F023FAC8F8DA
:101C00002C008DF80860F64F4FF478403860D8F813
:101C1000280007F0EBF902460B46F2A102A807F0F4
:101C2000F9FE02AA7821A42002F0A0FB8DF808603A
:101C3000D8F82C0007F0DAF902460B46E9A102A811
:101C400007F0E8FE02AAA021A42002F08FFB4FF4C7
:101C5000FC6BC7F800B0E5480068C8F84400C8F855
:101C60004000F1E04FF0FF31D8F8380006F0E2F91B
:101C70004FF478403860D8F8280007F0B7F9DFF85B
:101C80005CA304460AF1630A0D460AF1020008F05B
:101C900047FB22462B4607F0BDF905D2D4A2782196
:101CA000EC2002F063FB07E088234FF49672782162
:101CB000EC20009602F038FCD8F82C0007F096F9DA
:101CC000DFF81893044609F15D090D4609F101009A
:101CD00008F026FB22462B4607F09CF905D2C4A249
:101CE000A021EC2002F042FB07E0B0234FF48A72FF
:101CF000A021EC20009602F017FC4FF6E0743C6047
:101D00000AF101027821442002F030FB09F10102BE
:101D1000A021442002F02AFBB44DD8F844102868D2
:101D2000401AC8286BD9B44C4FF480412046FEF7C6
:101D30000DFC2E23E4221E21D420CDF800B002F0A9
:101D4000F3FBAEA003F0C6FDB44806700AF1010132
:101D500007F04CF809F10101B04807F047F8AF4827
:101D600003F0B8FDAD48AEA1963007F05EF8AB4980
:101D70001422A531A94803F009FC4FF003094FF0E4
:101D8000640A1CE0A548963003F08DFEA8A2C0218D
:101D9000102002F0EBFA81A0CDE9000A0122A7A3EE
:101DA0001146022003F03FFB18B34FF400512046C8
:101DB000FEF7CCFBA3A2C021102002F0D7FAB9F1A4
:101DC0000109DFD24FF480412046FEF7BDFB4FF4FE
:101DD00000512046FEF7B8FB2E23E4221E21D4201A
:101DE000009602F0A1FB03F0D0FE2868C8F844007A
:101DF00024E097A2C021102002F0B8FAE2E78DF8A3
:101E00000860C0F1C8000A21B0FBF1F293A102A85A
:101E100007F000FEC7F800B091A21E21142002F0C6
:101E2000A5FA3C6002AA1E21AC2002F09FFAC7F876
:101E300000B090A21E21CC2002F098FAD8F8380009
:101E400006F070F905F079FA002002F015F888F82C
:101E5000010000283FF406AFBDE8FF9FFFF7A0FE9A
:101E6000FCE700B587B00520ADF8080082A005901A
:101E7000844801904FF480600490584801A93430A0
:101E800004F0D6FF07B000BD08B5544C0A276334F0
:101E9000524D4FF064084FF02E09A4F1060A0026B7
:101EA0004FF4004B4FF0FF31A86B06F0C3F85946D2
:101EB0005148FEF74BFB4FF6E07000901A23E422E6
:101EC0000A21D42002F030FB444808216A3003F094
:101ED0000EFF6D48017811B16C490978C9B166707F
:101EE0008AF801606AA007F085FD59464248FEF76E
:101EF0002BFB1A23E4220A21D420009602F014FBC3
:101F0000642005F04FFAA86B06F00CF905F015FAFD
:101F1000C8E706706248C178090202790A436A601C
:101F20004179090280790843A86003F024FF7420F6
:101F300020706868E8600346002819DD4FF02B0226
:101F40006270B0FBF8F202F13002A270B0FBF8F25E
:101F500008FB1202B2FBF7F202F13002E27084F8E1
:101F60000490B0FBF7F207FB120202F1300262713B
:101F700005DA6FEA030101F10101E96092E0ABE0EB
:101F800000040040CEC2CAAAB6C80000B5B1C7B0AE
:101F90002020202020202020E3D0D6B50000000003
:101FA000CEC2B6C8A3BA202020202020A1E620203F
:101FB0002020202020202020A1E60000CAAAB6C8A8
:101FC000A3BA202020202020A3A5202020202020EC
:101FD00020202020A3A50000C70400202800002006
:101FE000A0000020252E3166000000000401002022
:101FF0005761726E696E6700001001404E42494F92
:1020000054206D6F64756C652069732073656E6410
:10201000696E6720646174613A000000C2020020AA
:1020200041542B514C574441544153454E443D007B
:1020300073656E642E2E2E2E0000000053454E4414
:10204000204F4B0053656E64204661696C2100008F
:1020500053656E64204F4B2100000000253364005F
:1020600055706C6F6164696E6720206461746120D3
:10207000696E20007300000053686F775F546173CE
:102080006B0000005D1E00081601002012010020F8
:102090000D0AB2C9BCAFCAA7B0DC0D0A000000002F
:1020A000C70A00204FF02D016170B0FBF8F202F179
:1020B0003002A270B0FBF8F208FB1202B2FBF7F29A
:1020C00002F13002E27084F80490B0FBF7F107FBF4
:1020D000110000F130006071A6714FF068008AF8BD
:1020E0000000A868B0FBF8F101F130018AF8011096
:1020F000B0FBF8F108FB1101B1FBF7F101F1300180
:102100008AF802108AF80390B0FBF7F107FB110080
:1021100000F130008AF804008AF80560E5E600B5B1
:1021200087B00320ADF80800F8A00590FB480190A7
:102130004FF48060049001A9F94804F079FEA1E60B
:1021400010B5F7490120083105F035FF014611B1FE
:10215000F4A007F04FFCFFF7E2FF04462CB1214644
:10216000F9A007F047FC204610BDFFF77AFE0446B1
:102170002CB12146FEA007F03DFC204610BD0020FA
:1021800010BD10B501F0B4F903F0BAFE01F060FF24
:10219000002001F044FF4FF4E134204603F0D8FA68
:1021A000204603F03CFC4FF4165003F06DFD204632
:1021B00003F03EFE02F0E0FF41F61F4140F2E7303F
:1021C00002F0DEFF2021F448FEF7BEF9F3490020BB
:1021D0000860F3494FF4FC600860F2A1F44806F08F
:1021E00005FEF348F3A10C3006F000FEF048F3A121
:1021F000183006F0FBFDEE48F3A1243006F0F6FDA2
:102200000021F0234FF4A072084602F06EF901F0AD
:1022100021FEEFA2DC21D02002F0A8F8BDE810409A
:10222000EFA2C8214FF4807002F005B910B5FFF796
:10223000A8FF06F0E1F9014621B1EBA007F0DAFBB7
:10224000012010BDFFF77CFF014621B1F0A007F08F
:10225000D1FB012010BD06F0BEF9FEE72DE9F04FDD
:1022600087B00121F548FFF770F802F063FD002008
:1022700001F0D5FEF248012707700021F0234FF44A
:10228000A072084602F031F9C54C4FF6E0702060AC
:10229000ECA20A218C2002F0CEF84FF4FC60206002
:1022A000ECA20521062002F061F8EBA205211E2018
:1022B00002F0C1F8EAA2BE21062002F057F8E9A216
:1022C000BE211E2002F0B7F8DFF8A083E84E0024FC
:1022D000934D303DE3E03068012802D1C8F89C718D
:1022E00034603068022802D1C8F89C41346002F0A2
:1022F0001FFC0028EED12C61142102A806F06BFD12
:102300004FF00009DFF86CB30DF1080A0AEB490041
:102310001BF80920D8A107F07DFB09F10109B9F1EB
:10232000040FF3DB02A803F095FDD5A23C21782031
:1023300002F081F8AFF220323C21982002F016F82A
:1023400002AA3C21A02002F011F8CF480470AFF29D
:10235000303106F06AFDCC4916220F3102A803F095
:1023600015F9C94803F09FFBDFF82093D9F8000066
:10237000E8631CE0081AC0B26422009014231146DE
:10238000782002F0ECF8D9F80000E96B401A6428D4
:1023900008D934607823DC2264211846009402F0C6
:1023A000C3F80BE0306801280CD002280AD0E86B93
:1023B000D9F8001000F164029142DBD330680128A3
:1023C00008D044E07823DC2264211846009402F00F
:1023D000ABF8F3E7C8F89C71ADA22821782002F091
:1023E0002AF8AFF2CC322821A82001F0BFFF7CA24E
:1023F0002821B82002F01FF8DFF8A4914FF61F0043
:10240000C9F80000DFF890A2CAF8B871A3A264214D
:102410008C2002F010F8002001F02EFD052801D0DC
:10242000012000E0002068700028F4D1C8F89C4129
:102430009CA264218C2001F0FEFF4FF4FC60C9F8DF
:1024400000004FF47A7003F089FDCAF8B841306893
:1024500002281BD1DFF848914FF47840C9F80000FA
:1024600092A264218C2001F0E6FF4FF4FC60C9F8D1
:1024700000002869401C2861052803D14EF6602021
:1024800003F06CFD4FF47A7003F068FD78234FF48D
:102490009B7228211846009402F046F83460002010
:1024A00001F0EAFC687000283FF415AF6878012855
:1024B00028D002283FF40CAF032824D004287FF44E
:1024C00007AFDFF8F0A1C1025046FEF73DF8DFF894
:1024D000BC91D9F80000E8634FF4006B5946764888
:1024E000FEF71EF80028F9D0DFF8ACB1D9F80000EB
:1024F000E96B411A022907D3DBF8B41109B10021B5
:10250000DCE009E1E8E0F0E0DBE00000436F6C6C48
:102510006563745F5461736B00000000891E0008DE
:1025200058000020B6FED6B5D0C5BAC5C1BFB4B4F8
:10253000BDA8CAA7B0DCA3A1CAA7B0DCB4FAC2EB9D
:10254000307825580A000000436F6C6C6563745F37
:102550005461736BC8CECEF1B4B4BDA8CAA7B0DCC9
:10256000A3A1CAA7B0DCB4FAC2EB307825580A00A0
:1025700053686F775F5461736BC8CECEF1B4B4BD4E
:10258000A8CAA7B0DCA3A1CAA7B0DCB4FAC2EB30DA
:102590007825580A00000000000C01409C00002033
:1025A000A0000020CEC2B6C8E3D0D6B5000000001F
:1025B000BB0400203032352E30000000CAAAB6C855
:1025C000E3D0D6B5000000003033302E30000000DC
:1025D000323032303039353137313131000000009E
:1025E000C2BDB9E3D0CB00004C6974654F5320BA2B
:1025F000CBD0C4B3F5CABCBBAFCAA7B0DCA3A1CAD9
:10260000A7B0DCB4FAC2EB307825580A000000000D
:102610004170705461736B437265617465B4B4BD8D
:10262000A8C8CECEF1CAA7B0DCA3A1CAA7B0DCB4BB
:10263000FAC2EB307825580A000000000004004080
:1026400000010020CBA2BFA8BBF2CAE4C8EBC3DCE8
:10265000C2EB00004B313E00B7B5BBD80000000014
:102660004B353E00B9D8C3C50000000000802142B0
:1026700020010020A4000020253032580000000076
:10268000BFA8BAC5000000005803002004010020C4
:10269000BBB6D3ADC4FA000000002242D2D1BFAA1B
:1026A000C3C50000D2D1B9D8C3C50000D7A2B2E1DA
:1026B000000000000010014000080140CBF8B411F8
:1026C000E863002001F0D8FB04287FF40FAFC102BB
:1026D0005046FDF739FFFBE5FE48047007B00021C6
:1026E000BDE8F04FFC48FEF730BEFC4D4FF480498A
:1026F00049462846FDF72AFF642003F02FFC49468F
:102700002846FDF721FF642003F028FC002001F09B
:10271000B3FB0328ECD1DBE50121F1E62DE9F84319
:102720000546884616460027002B01D088F8007021
:1027300000240BE000972A5DAFF2C401684607F061
:1027400069F96946404606F051FB641CB442F1DB6E
:10275000BDE8F88378B50020E14BE24EA3F15205C5
:1027600000222C6A04EB840106EB410100920E5C0E
:102770001E54401C0528F9DB0520D94A521D1618A5
:102780000B5C06F8053C401C0A28F8DB641C686AF0
:1027900094FBF0F100FB1140286278BD2DE9F8436D
:1027A0000546CF4E523E706A401C70620024CD4FE9
:1027B000A046CDF8008015F814008DF8000005EB58
:1027C000440040788DF8010010220021684606F090
:1027D00035FB0146706A401E00EB800007EB4000AD
:1027E0000155641C052CE4DB05216A5C4254491C3C
:1027F0000A29FADBACE78AB000F0F0FC002001F017
:102800000EFC0121B448FEF7A0FDB7A007F0F2F8D6
:10281000BAA007F0EFF8B349B148012305220B39FC
:102820000A38FFF77BFFAF49B7A00B3907F0E2F892
:102830000024242101A806F0CEFAA9480A3800F0A5
:10284000C1FD01A800F0A5FD0028F2D18DF82440BB
:10285000AEA007F0CFF801A9ABA007F0CBF801A814
:10286000FFF79CFFE5E72DE9F05F01219A48FEF7AD
:102870006CFD002001F0D3FBA74C4FF478402060A2
:10288000A6A22821E82001F0D6FD4FF4FC602060CC
:10289000A5A23821302001F069FDA5A23821282009
:1028A00001F064FDA3A24821302001F05FFDA0A249
:1028B0004821282001F05AFDA1A25821302001F022
:1028C00055FD9BA25821282001F050FD9FA26821B0
:1028D000302001F04BFD96A26821282001F046FD32
:1028E0009DA27821302001F041FD91A2782128207D
:1028F00001F03CFD794C4FF4005949462046FDF764
:1029000023FE4FF4804B59462046FDF71DFE4FF441
:1029100000412046FDF718FE714DDFF84482914ECC
:10292000914F523D002001F0A7FA68700028F9D0BD
:102930006878012829D002282DD003283CD004280B
:10294000F0D149462046FDF7FFFD3068E8634FF4BB
:10295000006A51464046FDF7E3FD0028F9D0316892
:10296000E86B081A022806D3D7F8B401C0B30020D8
:10297000C7F8B401E963002001F07EFA0428EED123
:1029800049462046FDF7E0FDCCE7BDE8F05F0021B9
:102990005148FEF7DABC4FF4004A51462046FDF795
:1029A000D5FD80214046FDF7BBFD0028F9D05146FA
:1029B0002046FDF7C9FDB5E759462046FDF7C6FD9F
:1029C000642003F0CBFA59462046FDF7BDFD642094
:1029D00003F0C4FA002001F04FFA0328ECD1A1E77C
:1029E000FFE70120C4E72DE9F84F002001F017FBB5
:1029F000494C4FF47840206048A22821E82001F09B
:102A00001AFD4FF4FC60206047A23821E82001F055
:102A1000ADFC47A23821E02001F0A8FC53A24821D8
:102A2000E82001F008FD42A24821E02001F09EFCD0
:102A300051A25821E82001F0FEFC3DA25821E020DF
:102A400001F094FC4FA26821E82001F0F4FC38A2C8
:102A50006821E02001F08AFC4BA27821E82001F0F7
:102A6000EAFC33A27821E02001F080FC0021F02371
:102A70004FF4A072084601F038FDAFF2AC42DC2101
:102A8000D02001F073FCAFF2A842C8214FF480704F
:102A900001F0D1FC3D4A2821482001F0CCFC3B4A02
:102AA00028210C329246922001F060FC38A2382195
:102AB000922001F05BFC0A4C00279225334E4FF028
:102AC0009A084FF00509523C002001F0D5F96070DA
:102AD00000285FE0000100200004004000100140D9
:102AE0007A000020EF0100204E524632344C303143
:102AF00020D6F7BBFAC4A3CABD0D0A00B1BEBBFA0B
:102B0000B5D8D6B73A000000257300000D0ACAD523
:102B1000B5BDCFFBCFA23A00A0000020B2D9D7F7B5
:102B2000CBB5C3F700000000484F4D450000000042
:102B30002A00000059656C6C6F774C45440000001A
:102B40005475726E204C6566740000005475726E88
:102B500020526967687400004261636B00000000E6
:102B6000000801400401002000002242C9E8B1B879
:102B7000D1A1D4F100000000CEBBCAFDD1A1D4F197
:102B800000000000BCD30000BCF50000BB04002026
:102B90002D00000098D0607801281CD002285ED05B
:102BA00003287DD004287CD005288DD1A06900EBB6
:102BB000400006EBC002E0691044017B491EC9B227
:102BC0000173302901D2392101730C32282192205E
:102BD00001F0CCFB78E7FB4D4FF40044214628463A
:102BE000FDF7B4FCF8A002F075FEFD490F705146E8
:102BF000FB4806F0FBF8FB49F94806F0F7F8F848FF
:102C000002F068FEAFF6E831F54806F00EF9F44937
:102C10001522A531F24802F0B9FCF14802F043FF59
:102C2000AFF6F432C021102001F0A0FB611028465D
:102C3000FDF78CFC21462846FDF786FCA1102846AE
:102C4000FDF782FCAFF6F832C021102001F08EFBB8
:102C500002F09BFFBDE8F84F002001F0E0B9A06949
:102C6000401C00EBD07121F00101401AA06100EB83
:102C7000400006EBC0022821482001F0DCFBA069DF
:102C8000282100EB400006EBC0020C32922001F03C
:102C90006DFB0097E06908EBC00205EBC00001E0A6
:102CA0000CE03EE04823382101F03EFCAFF2201258
:102CB0003821922001F05AFBE76105E70097E069AF
:102CC000482308EBC00205EBC000382101F02CFCC2
:102CD000E069401C90FBF9F209FB1200E061A26977
:102CE00002EB420206EBC2021118097B2E290FD11A
:102CF00008EBC00205EBC00048233821009701F023
:102D000013FCE069401C90FBF9F109FB1100E06144
:102D1000E06905EBC000AFF28812382101F026FB14
:102D2000D2E6A06900EB400006EBC002E069104467
:102D3000017B491CC9B20173392901D930210173C2
:102D40000C322821922001F011FBBDE6F8B50746B0
:102D5000A54D0624012269691E264FF6E07006295A
:102D60001EDA91FBF4F304FB131302EB430206EBB0
:102D7000021391FBF4F204FB1211009006EB4111D7
:102D80002E221E2001F0D0FB68693A4690FBF4F138
:102D900004FB110006EB4011322001F04CFB1DE05A
:102DA00091FBF4F304FB131302EB430206EB021353
:102DB00091FBF4F204FB1211009006EB4111BA22D0
:102DC000AA2001F0B1FB68693A4690FBF4F104FBDC
:102DD000110006EB4011BE2001F02DFB6869401C7C
:102DE0006861F8BDF8B507467F4D06240122696980
:102DF0001E264FF6E07006291EDA91FBF4F304FB61
:102E0000131302EB430206EB021391FBF4F204FBF3
:102E10001211009006EB41112E221E2001F084FBBE
:102E200068693A4690FBF4F104FB110006EB40118F
:102E3000322001F09BFA1DE091FBF4F304FB131325
:102E400002EB430206EB021391FBF4F204FB1211B6
:102E5000009006EB4111BA22AA2001F065FB6869D7
:102E60003A4690FBF4F104FB110006EB4011BE2042
:102E700001F07CFA6869401C6861F8BD2DE9F84FE3
:102E8000DFF868A100215046FEF75FFA002001F04C
:102E9000C6F80021F0234FF4A072084601F025FB8C
:102EA000AFF6D402DC21D02001F060FAAFF6D002F8
:102EB000C8214FF4807001F0BEFA4B4D00246C61C4
:102EC0004BA0FFF743FF4DA0FFF78CFF4DA0FFF78E
:102ED0003DFF4FA0FFF73AFF50A0FFF783FF52A03E
:102EE000FFF780FF42A0FFF731FF41A0FFF72EFF61
:102EF0003FA0FFF72BFF3EA0FFF728FF28781E26F4
:102F000006EB40114AA20E2001F030FADFF82491BE
:102F100006274FF02E08012000F0AEFF6870002851
:102F2000F9D0687801282BD002282CD00328F2D0C1
:102F30000428F0D00528EED1287800283DD00128BB
:102F40003CD002283BD003283AD0042839D00528A9
:102F5000E1D1002001F063F899F80000002877D053
:102F600035A26421782001F001FA34A264214C20BA
:102F700001F061FABDE8F84F41F2883002F0EEBF8F
:102F80002C70BDE8F88F287805286DD2B0FBF7F1DA
:102F900007FB110108EB4113B0FBF7F107FB110030
:102FA00006EB40114FF016024FF00E00009401F0B6
:102FB000BBFA2878B0FBF7F14BE0B7E0B9E0DAE014
:102FC000DDE0E0E000100140E3D0D6B5C9E8B6A8E6
:102FD000CDEAB1CF2CC9CFB1A8E3D0D6B53A000025
:102FE000C2020020DF04002028000020000400406E
:102FF000E3D0D6B5C9E8B6A8000000004E422D695E
:103000006E697400BFAACABCB2C9BCAF00000000A0
:10301000D7AACFF2B5C6C4A3C4E200004E524632CE
:10302000344C30310000000052464944000000009A
:103030003E0000000C0100204E420000C4A3BFE986
:10304000BBB9C3BBD3D0B3F5CABCBBAF0000000053
:103050009BE007FB1100401C06EB4011AFF2300271
:103060000E2001F083F954E019D1B0FBF7F107FB12
:10307000110108EB4113B0FBF7F107FB110006EB60
:1030800040114FF016024FF00E00009401F04CFA80
:10309000AFF264021E219A2001F068F939E06969F3
:1030A000491E884217D1B0FBF7F107FB110108EB6D
:1030B0004113B0FBF7F107FB110006EB4011A22210
:1030C0009A20009401F030FAAFF29C021E210E20EB
:1030D00001F04CF91DE0B0FBF7F107FB110108EB23
:1030E0004113B0FBF7F107FB110006EB4011A222E0
:1030F0009A20009401F018FA2878B0FBF7F107FB4A
:103100001100401C06EB4011AFF2DC029A2001F0E6
:103110002DF928786969401C90FBF1F201FB12003F
:1031200028704FF4967002F019FFF4E6BDE8F84FEE
:1031300059E401215046FEF708F910211A48FDF71D
:1031400003FA1A4804601A494FF4FC600860002032
:1031500000F065FF17A2DC210A2001F007F989F8C9
:1031600000401948047000F034FA5046BDE8F84FAA
:103170000021FEF7EAB8BDE8F84FFEF711BDBDE843
:10318000F84FFFF770BBFFF736FBBDE8F84FFFF7CE
:1031900065B810B504460DA002F05CFE2046BDE8FF
:1031A000104002F057BE0000000801409C000020C3
:1031B000A00000204E422D4D6F75646C6520496E55
:1031C00069742E2E2E0000000D01002064617461D0
:1031D000526563656976653A20000000F8B5012103
:1031E0001420FDF748FB4FF47075ADF80050102720
:1031F0008DF8037003248DF80240B04E69463046C6
:10320000FDF733F929463046FDF79EF94020ADF829
:10321000000048258DF803506946A948FDF725F9B7
:103220000126ADF800608DF803708DF80240A54FBF
:1032300069463846FDF719F90221ADF800108DF8FE
:1032400003508DF8024069463846FDF70EF9032118
:103250003846FDF779F99C49002008609B48C0F882
:103260009861F8BD2DE9F0410D461646974F0021B3
:10327000C7F8981101F0B7F98046002405E0FF2057
:1032800001F0B1F92855641CE4B2B442F7D301202F
:10329000C7F898014046BDE8F0812DE9F0410D46A0
:1032A00016468A4F0021C7F8981101F09CF9804614
:1032B000002405E015F8010B01F095F9641CE4B257
:1032C000B442F7D30120C7F898014046E3E71CB5A4
:1032D0007FA003C8CDE90001052269463020FFF731
:1032E000DCFF052269461020FFF7BCFF002069467D
:1032F0000A5CA52A03D1401CC0B20528F8D30528D2
:1033000001D001201CBD00201CBD70B502460D4639
:10331000714C00202060104601F065F906462846F1
:1033200001F061F901202060304670BD10B56A4C93
:103330000021216001F057F9FF2001F054F901212B
:10334000216010BD10B5654C0022C4F880210146F3
:103350002022A020FFF7A1FF0120C4F88001D4F8AB
:1033600004010028FBD10720FFF7E0FF04462146B7
:103370002720FFF7CAFFE00605D5FF21E120FFF770
:10338000C4FF102010BDA00601D5202010BDFF20D5
:1033900010BD70B505460720FFF7C8FF044621465B
:1033A0002720FFF7B2FF60060AD5202229466120B8
:1033B000FFF758FFFF21E220FFF7A7FF002070BDB5
:1033C000012070BD70B506460024404DD5F8B4010B
:1033D00058B10022C5F8B421642002F0BFFD641C7E
:1033E000052CF3DBFFF7FAFE09E00122F2E73CA02F
:1033F00006F000FB01213AA2084600F0B7FFFFF7F4
:1034000066FF0028F3D1304C2060052231462A2087
:10341000FFF743FF01212120FFF777FF0121222041
:10342000FFF773FF28212520FFF76FFF20213120B0
:10343000FFF76BFF0F212620FFF767FF0F212020EA
:10344000FFF763FF0120206070BD70B505460E4692
:10345000FFF7C4FE07E022A006F0CCFA012120A26B
:10346000084600F083FFFFF732FF0028F3D1164C27
:103470002060052229463020FFF70FFF0522314644
:103480002A20FFF70AFF01212120FFF73EFF01213B
:103490002220FFF73AFF1A212420FFF736FF2821C8
:1034A0002520FFF732FF0F212620FFF72EFF0E21E8
:1034B0002020FFF72AFF0120206070BD001001408E
:1034C000000C01400008014080012142000022421E
:1034D000A5A5A5A5A5000000980122420000214253
:1034E0004E524632344C3031204572726F720000B9
:1034F0002DE9F8436846FDF70BF801210420FDF79C
:10350000BAF901210820FDF7B6F901211020FDF7D5
:10351000B2F90120ADF8000003258DF80250102407
:103520008DF80340FE4E69463046FCF79EFF0220B0
:10353000ADF800008DF802508DF803406946304622
:10354000FCF793FFADF800408DF802508DF8034072
:1035500069463046FCF789FF2020ADF800008DF861
:1035600002508DF803406946EE48FCF77EFF4FF4A9
:103570000058ADF800808DF802508DF80340DFF858
:10358000A89369464846FCF770FFA602ADF80060B4
:103590008DF802508DF8034069464846FCF765FFF8
:1035A000E702ADF800708DF802508DF803406946CF
:1035B0004846FCF75AFF41464846FCF7C5FF3146EE
:1035C0004846FCF7C1FF39464846FCF7BDFFBDE859
:1035D000F8832DE9F04F8BB04FF003090020002550
:1035E00002AC2554401C1E28FBD3DFF83C834FF46B
:1035F000004B59464046FCF7A9FFCCA002F06AF9FF
:10360000D5A22021102000F0B1FE4FF47A7A504666
:1036100002F0A4FCD4A002F046FA4FF4FA76304649
:1036200002F09CFC3C20D3A1CDE900100122D2A3E2
:103630001146022001F0F7FE02F0A7FA5946404673
:10364000FCF782FF504602F089FC59464046FCF7E1
:103650007DFF32271EE0CDA002F03CF9C9F1330016
:103660000A900AAA3021052000F080FECEA2302167
:10367000102000F07BFECEA002F015FABDA0CDE92F
:1036800000070122CCA31146022001F0CCFE08B9AC
:103690004FF00009B9F10109DDD202F076FA59467E
:1036A0004046FCF751FF504602F058FC5946404650
:1036B000FCF74CFF4FF003091EE0C0A002F00AF92E
:1036C000C9F133000A900AAA4021052000F04EFEFD
:1036D000C4A24021102000F049FEC6A002F0E3F988
:1036E000B5A0CDE900070222C6A31146104601F09D
:1036F0009AFE08B94FF00009B9F10109DDD202F0D4
:1037000044FAD94649464046FCF71EFF504602F0AF
:1037100025FC49464046FCF719FF4FF0030B1EE01D
:10372000BBA002F0D7F8CBF133000A900AAA5021CF
:10373000052000F01BFEC1A25021102000F016FE53
:10374000C7A002F0B0F98BA0CDE9000701229AA32F
:103750001146022001F067FE08B94FF0000BBBF1E3
:10376000010BDDD202F011FA49464046FCF7ECFEAF
:103770004FF47A7002F0F2FB49464046FCF7E6FE51
:103780004FF0030ADFF8FCB24EE0BFA002F0A2F84F
:10379000CAF133000A900AAA6021052000F0E6FD74
:1037A000C1A26021102000F0E1FDC2A002F07BF96F
:1037B00081A0CDE900070222C1A31146104601F005
:1037C00032FE88BB4FF0000A1BF80A002B2825D1D7
:1037D0000BEB0A004178432920D1817847291DD17C
:1037E000C17853291AD101794E2917D140793A2845
:1037F00014D1B5A102A805F018FB00200BEB0A01BB
:103800002218C9791173401C0AF1010A0F28F5D357
:10381000B1A10DF1230005F008FBB2460AF1010A3F
:10382000B245D1D34FF0000ABAF1010AADD202F08D
:10383000ACF949464046FCF787FE4FF47A7A504689
:1038400002F08CFB49464046FCF780FE032622E04E
:10385000A2A002F03FF8C6F133000A900AAA702134
:10386000052000F083FD02AA7021102000F07EFDEB
:1038700002A802F018F93FA0CDE9000701224EA3EB
:103880001146022001F0CFFD00B900260022A55408
:10389000521C1E2AFBD3761E701CD9D102F075F97A
:1038A00049464046FCF750FE504602F057FB494659
:1038B0004046FCF74BFE032426E090A002F00AF8F5
:1038C000C4F133000A900AAA8021052000F04EFDC1
:1038D00091A28021102000F049FD95A002F0E3F8AC
:1038E00024A0CDE90007012233A31146022001F0F4
:1038F0009AFD00B90024504602F030FB504602F019
:103900002DFB504602F02AFB641E601CD5D102F04C
:103910003CF949464046FCF717FE504616E10000C8
:1039200000080140000C014000100140546865206F
:10393000646174612072657475726E2062792063AF
:103940006865636B696E67204E42206D6F756475A4
:103950006C652E2E2E0D0A00726573746172746987
:103960006E672E2E2E00000041542B515253543DB1
:10397000310D0A00000000004C656176696E672019
:103980007468652042524F4D0000000053656E641C
:10399000696E672074686520415420436F6D6D61C6
:1039A0006E642E2E2E0D0A0041542E2E2E00000085
:1039B00041540D0A000000004F4B0000436865634E
:1039C0006B696E6720746865206465766963652736
:1039D000732050445020616464726573732E2E2EE0
:1039E0000D0A000041542B434750414444523D319D
:1039F0000000000041542B434750414444523D31A4
:103A00000D0A00002B434750414444523A00000045
:103A1000436F6E6669672074686520435477696EEA
:103A2000672773206164647265737320616E64201C
:103A3000706F72742E2E2E0D0A00000041542B510F
:103A40004C57534552563D223232312E3232392EA6
:103A50003231342E323032222C35363833000000E9
:103A600041542B514C57534552563D223232312E40
:103A70003232392E3231342E323032222C35363831
:103A8000330D0A00D3080020436865636B696E67D5
:103A90002074686520646576696365277320494DE5
:103AA00045492E2E2E0D0A0041542B4347534E3DBF
:103AB0003100000041542B4347534E3D310D0A0065
:103AC0002B4347534E3A000041542B514C57434F20
:103AD0004E463D2200000000220D0A00636F6E6614
:103AE00069672074686520435477696E672773207F
:103AF000706172616D2E2E2E0D0A000041646420EB
:103B0000746865204C774D324D206F626A6563742E
:103B10002E2E2E0D0A00000041542B514C574144CB
:103B2000444F424A3D31392C302C312C2230220076
:103B300041542B514C574144444F424A3D31392C5A
:103B4000302C312C2230220D0A00000002F006FA3F
:103B500049464046FCF7FAFC032464252BE05DA0AF
:103B600001F0B8FEC4F133000A900AAA90210520A2
:103B700000F0FCFB65A29021102000F0F7FB67A08D
:103B800001F091FF60A0CDE90005012267A3114675
:103B9000022001F048FC10B967A001F09BFE46200E
:103BA00059A1CDE90010012268A31146022001F0BD
:103BB0003AFC00B90024641E601CD0D101F0E5FF7E
:103BC00049464046FCF7C0FC504602F0C7F949465A
:103BD0004046FCF7BBFC03241DE060A001F07AFE28
:103BE000C4F133000A900AAAA021052000F0BEFB10
:103BF00061A2A021102000F0B9FB66A001F053FFE4
:103C000041A0CDE9000701224AA31146022001F09C
:103C10000AFC00B90024641E601CDED101F0B5FF6F
:103C200049464046FCF790FC504602F097F9494659
:103C30004046FCF78BFC03244FF480462DE05DA04A
:103C400001F048FEC4F133000A900AAAB021052011
:103C500000F08CFB5EA2B021102000F087FB65A075
:103C600001F021FF28A0CDE90005012271A3114632
:103C7000022001F0D8FBC0B149464046FCF764FC85
:103C800031464046FCF760FC49464046FCF75EFC86
:103C90006AA2C021102000F069FB641E601CCED116
:103CA00001F073FF0BB0BDE8F08F002431464046B1
:103CB000FCF74CFC49464046FCF746FC4FF40051EB
:103CC0004046FCF741FC60A2C021102000F04EFBF2
:103CD000E3E70000456E61626C6520746865205200
:103CE0004620616E642053656E64206120726571A8
:103CF000756573742061626F75742072656769738E
:103D00007465722E2E2E0D0A0000000041542B51B6
:103D10004C574F50454E3D300000000041542B5150
:103D20004C574F50454E3D300D0A0000434F4E4E0C
:103D3000454354204F4B0000536572766572204313
:103D40006F6E6E6563746564210D0A002B514C57CC
:103D50004F4253455256453A0000000053657420C7
:103D600074686520646174612720666F726D617488
:103D70002E2E2E0D0A00000041542B514C57434665
:103D8000473D2264617461666F726D6174222C31EB
:103D90002C31000041542B514C574346473D22647F
:103DA000617461666F726D6174222C312C310D0A61
:103DB0000000000053656E642068616E6473686182
:103DC0006B65206672616D652E2E2E0D0A00000057
:103DD00041542B514C574441544153454E443D317D
:103DE000392C302C312C31342C30322E2E2E2E2EDC
:103DF0002E00000041542B514C574441544153452F
:103E00004E443D31392C302C312C31342C30323071
:103E10003030313030303730303037363336663648
:103E20006536653635363337342C307830313030BE
:103E30000D0A000053454E44204F4B006661696CEB
:103E4000202020210000000073656E64206F6B212C
:103E50000000000008B501210420FCF70CFD4820FB
:103E60008DF803004FF4CE50ADF8000069463D4890
:103E7000FCF7FBFA08BD70472DE9F04701263A4CE4
:103E8000002800D026702078364D4FF480774FF40C
:103E900000684FF48059012818D140212846FCF7CA
:103EA0003FFBD0B180212846FCF73AFBA8B1394648
:103EB0002846FCF735FB80B141462846FCF730FB2D
:103EC00058B149462846FCF72BFB30B14021284623
:103ED000FCF726FB01282AD042E00A2002F03EF837
:103EE0000020207040212846FCF71AFBA0B1802159
:103EF0002846FCF715FB90B139462846FCF710FB25
:103F000078B141462846FCF70BFB60B1494628468C
:103F1000FCF706FB48B123E00120BDE8F087022052
:103F2000FBE70320F9E70420F7E70520F5E7802108
:103F30002846FCF7F5FA012812D139462846FCF745
:103F4000EFFA01280CD141462846FCF7E9FA01288E
:103F500006D149462846FCF7E3FA012800D126702D
:103F60000020DAE7000801409A00002001F08CB838
:103F700010B504460121FA48FCF7E6FA2046BDE8F0
:103F80001040F3E710B504460121F548FCF7DCFAD0
:103F9000C4F30720FFF7EAFFE0B2BDE81040E5E711
:103FA00010B504460121EE48FCF7D0FA2046BDE8E2
:103FB0001040DBE710B50C46C0B2FFF7F1FF20461A
:103FC000BDE81040DEE72DE9F04107460C461546F6
:103FD0001E462A20FFF7E4FFC7F30720FFF7C8FFBC
:103FE000F8B2FFF7C5FFC5F30720FFF7C1FFE8B23E
:103FF000FFF7BEFF2B20FFF7D3FFC4F30720FFF727
:10400000B7FFE0B2FFF7B4FFC6F30720FFF7B0FF3A
:10401000F0B2FFF7ADFFBDE8F0412C20C0E72DE97D
:10402000F04107460021EF2340F23F120846FFF718
:10403000CAFF00254FF4A07600243846FFF7A2FF00
:10404000641CF02CF9D36D1CB542F5D3BDE8F081AA
:1040500038B501210820FCF70EFC41F20300ADF851
:10406000000010208DF8030003208DF80200BC4CE6
:1040700069462046FCF7F9F94FF203012046FCF7A8
:1040800063FA01F02AF802212046FCF75FFA1420B7
:1040900001F064FF02212046FCF756FA142001F0DB
:1040A0005DFFA1142046FCF74FFACF20FFF778FF01
:1040B0000020FFF75DFFD920FFF75AFF3020FFF700
:1040C00057FFED20FFF76CFF6420FFF751FF03203F
:1040D000FFF74EFF1220FFF74BFF8120FFF748FF4D
:1040E000E820FFF75DFF8520FFF742FF1020FFF774
:1040F0003FFF7820FFF73CFFCB20FFF751FF39202F
:10410000FFF736FF2C20FFF733FF0020FFF730FFCB
:104110003420FFF72DFF0220FFF72AFFF720FFF7DB
:104120003FFF2020FFF724FFEA20FFF739FF0020A0
:10413000FFF71EFF0020FFF71BFFC020FFF730FF37
:104140002120FFF715FFC120FFF72AFF1220FFF7FC
:104150000FFFC520FFF724FF3220FFF709FF3C20A7
:10416000FFF706FFC720FFF71BFFC120FFF700FF87
:104170003620FFF715FF7820FFF7FAFE3A20FFF709
:104180000FFF5520FFF7F4FEB120FFF709FF0020D5
:10419000FFF7EEFE1820FFF7EBFEB620FFF700FF5B
:1041A0000A20FFF7E5FEA220FFF7E2FEF220FFF76C
:1041B000F7FE0020FFF7DCFE2620FFF7F1FE0120CE
:1041C000FFF7D6FEE020FFF7EBFE0F20FFF7D0FE53
:1041D0002020FFF7CDFE1E20FFF7CAFE0920FFF7C3
:1041E000C7FE1220FFF7C4FE0B20FFF7C1FE5020D0
:1041F000FFF7BEFEBA20FFF7BBFE4420FFF7B8FE74
:104200000920FFF7B5FE1420FFF7B2FE0520FFF7E7
:10421000AFFE2320FFF7ACFE2120FFF7A9FE002010
:10422000FFF7A6FEE120FFF7BBFE0020FFF7A0FE90
:104230001920FFF79DFE1920FFF79AFE0020FFF7D7
:1042400097FE1220FFF794FE0720FFF791FE2D2026
:10425000FFF78EFE2820FFF78BFE3F20FFF788FE3A
:104260000220FFF785FE0A20FFF782FE0820FFF7F5
:104270007FFE2520FFF77CFE2D20FFF779FE0F2023
:10428000FFF776FE1120FFF78BFE782001F066FE27
:104290002920FFF785FE0020FFF7C1FE38BD10B5CD
:1042A0000B460246FFF78FFE2E484068BDE81040DF
:1042B00068E62DE9F05F81468B461C462948476831
:1042C000B9F5987F2AD8BBF1E00F27D8203A02F041
:1042D000FF080BF10F0309F1070259464846FFF7A3
:1042E00072FEDFF884A0DCB100251F4805EB081141
:1042F000465C00240BEB050AF00704D0514609EB9D
:104300000400FFF7CCFF7608641CE4B2082CF3D35A
:104310006D1CEDB2102DE8D312484760BDE8F09F48
:104320000026DFF8409006EB08101AF80050002431
:10433000E80702D0C9F8047003E0D9F80000C9F812
:104340000400D9F80400FFF71DFE6D08641CE4B2F8
:10435000082CEDD3761CF6B2102EE4D3DCE7000077
:10436000000C01409C0000204AA300082DE9F04108
:1043700004460E4615464FF498774FF4784812E0FD
:10438000BC4201D900241036E02E04D90024264670
:104390004046FFF744FE2A78002331462046FFF7C7
:1043A00088FF08346D1C28780028E9D14EE62DE9F5
:1043B000F047144601F10F0300F10F02FFF703FE6F
:1043C0006A234FF0200800207C4A31E000EB001106
:1043D00002EB4101267891F82050B54227D191F89F
:1043E00021106578A94222D100EB001002EB4005B4
:1043F0000026DFF8CC91012715E00024287807FA81
:1044000004F1084204D0D9F80400FFF7BBFD03E033
:10441000D9F80000FFF7B6FD641CE4B2082CEDD318
:104420006D1C761CF6B24645E7D3BDE8F087401C0C
:104430009842CBD3F9E72DE9F04106460F461546E1
:10444000002408E006EB04102A463946FFF7AFFFC8
:10445000AD1C641CE4B228780028F3D1F6E52DE900
:10446000FE4F00250026171AA3EB010801900091CA
:104470004FF0FF3B002F02DD4FF0010A06E002D1B2
:104480004FF0000A02E0DA46C7F10007B8F1000F6A
:1044900002DD4FF0010B05E002D14FF0000B01E00F
:1044A000C8F10008474501DD3C4600E044464FF0B6
:1044B0000009601C029013E0DDE90010FFF7EFFE39
:1044C0003D444644A54203DD2D1B01985044019014
:1044D000A64203DD361B00985844009009F10109FB
:1044E00002988145E8D9BDE8FE8F2DE9F0410546E7
:1044F0000E4614461F463346224631462846FFF7ED
:10450000AEFF3B462A4631462846FFF7A8FF3B460A
:10451000224639462846FFF7A2FF3B46224631464F
:104520002046BDE8F0419AE72DE9F0470746DDF85F
:1045300020900D4616469846434632462946384650
:10454000FFF741FD08E03C4603E04846FFF71AFD4F
:10455000641CB442F9D96D1C4545F4D965E72DE9D1
:10456000F05F90460A9C06460D4600EB0809A9F14B
:10457000010901EB030BABF1010B5B464A462946EF
:104580003046FFF720FD0E4F08FB04F84FF0640A99
:1045900011E034460CE0B8FBFAF03044A04203D9F5
:1045A0007868FFF7EFFC02E03868FFF7EBFC641C6B
:1045B0004C45F0D96D1C5D45EBD9AFE63AA9000832
:1045C0009C00002070B505460E46002404E0295DDD
:1045D000FEA005F00FFA641CB442F8DBBDE87040A1
:1045E000FCA005F007BAF0B5024600200021002427
:1045F000F94BFA4E0125C3F89C41170602D5C3F8C2
:10460000A05101E0C3F8A0415206120EC3F89C511C
:104610004006000ED6F818710FB140F00100491C99
:10462000C9B20829E7D3F0BD30B50D46EC4C0022E5
:1046300022607E2202EA4000FFF7D5FF2846FFF7FE
:10464000D2FF0120206030BD10B5E54C0021216073
:104650007E2101EA400040F08000FFF7C4FF002007
:10466000FFF7C1FF0121216010BD30B505460C46A2
:104670002846FFF7E9FF40EA04012846BDE830403C
:10468000D2E730B505460C462846FFF7DDFF20EAA5
:1046900004012846BDE83040C6E72DE9FF4F8246B9
:1046A000DDF834900D4693464FF0020800260027AF
:1046B000BAF10C0F05D0BAF10E0F04D11226102753
:1046C00001E07726302746F080010220FFF7ACFF9B
:1046D00080210420FFF7D5FF00210120FFF7A4FF70
:1046E00080210A20FFF7C1FF002405E0295D092091
:1046F000FFF79AFF641CA4B25C45F7D35146012032
:10470000FFF792FFBAF10C0F03D180210D20FFF7C4
:10471000ACFF4FF4FA640420FFF796FF0546641ED1
:10472000A4B21CB1E80701D13D42F4D080210D2094
:10473000FFF7A7FF3CB10620FFF786FF10F01B0F25
:104740000DD04FF0020880210C20FFF78EFF0021D2
:104750000120FFF769FF04B04046BDE8F08F4FF03D
:1047600000083540E80701D04FF00108BAF10C0FFE
:10477000E9D10A20FFF768FF05460C20FFF764FF28
:1047800000F0070028B1691E00EBC10089F80000A5
:1047900002E0E80089F8000005B90125122D00D9D2
:1047A0001225002406E00920FFF74EFF0399085563
:1047B000641CA4B2AC42F6D3C5E7F0B505460F467B
:1047C000164604210520FFF75CFF00210120FFF7BA
:1047D0002BFF80210A20FFF748FF002405E0295D18
:1047E0000920FFF721FF641CE4B2BC42F7D3032188
:1047F0000120FFF719FFFF240520FFF725FF641EA6
:10480000E4B20CB14007F7D52220FFF71DFF30704E
:104810002120FFF719FF7070F0BD10B587B093210C
:104820008DF8041070218DF8051000218DF80A1004
:1048300001AA5418435CA3709DF80A30445C63409D
:104840008DF80A30491CC9B20429F2D3D21D0721C0
:1048500001A8FFF7B2FF08210846FFF712FF06A8DC
:10486000009001AB092201A90C20FFF716FF18B92F
:104870009DF81810182900D0022007B010BD70B59F
:1048800087B00646002408210846FFF7FAFE0021FB
:104890000D20FFF7C9FE80210E20FFF7F2FE9320C6
:1048A0008DF8040020208DF8050006A8009001ABCB
:1048B000022201A90C20FFF7F0FE054628000DD1C9
:1048C000002101A8425C7254425C5440491CC9B2A8
:1048D0000429F7D3405CA04200D0022580210E209D
:1048E000FFF7C3FE284607B070BD30B587B0054658
:1048F0000C4608210846FFF7C4FE07210D20FFF7EC
:1049000093FE03211420FFF7B0FE8DF8045006A893
:10491000009001AB012201A90C20FFF7BEFE18B9DF
:104920009DF81810102902D0022007B030BD9DF864
:10493000041021709DF805106170F6E738B56946DE
:104940002620FFF7D2FF04468CB92648FFF797FFD1
:10495000044625A005F04EF802216846FFF732FE16
:1049600023A005F047F804211E48FFF72BFE1CB9D1
:104970001C48FFF752FF0446204638BD70B587B08B
:104980000D46A0218DF804108DF8050001ACA21C85
:10499000022101A8FFF711FF06AE01AB042201A915
:1049A0000C200096FFF779FE48B99DF818100429ED
:1049B00005D19DF8041001F00F010A2900D0022052
:1049C000002890D1295C2154401C15E030782558EE
:1049D000200000000D0A0000000022420080214259
:1049E00098012242A4000020BFA8C0E0D0CD3A0028
:1049F000BFA8BAC53A000000C0B21028E2D305AA89
:104A0000102101A8FFF7D9FE01AB122201A90C2049
:104A10000096FFF742FE48B99DF81810042905D109
:104A20009DF8041001F00F010A2900D002205AE776
:104A300010B587B08DF804008DF805101068CDF81A
:104A400006009088ADF80A001868039006A8009048
:104A500001AB0C2201A90E20FFF71FFE044624B96A
:104A60000820FFF7F1FD000700D40224204604E7E8
:104A70002DE9F04106460C4617461D46DDF8188024
:104A8000FFF75CFF28B943463A4621463046FFF718
:104A9000CFFF002804D129462046BDE8F0416DE74C
:104AA000BDE8F0817CB50546F7A003C8CDE900015B
:104AB000FFF744FF044634B9F54B6A4603216020F2
:104AC000FFF7B6FF044624B929460220FFF756FF38
:104AD000044634B9EFA004F08DFF10212846FFF7FB
:104AE00071FDE0B27CBD30B587B00D4630218DF848
:104AF00004108DF8050001ACA21C022101A8FFF7EB
:104B00005CFE06A8009001AB042201A90C20FFF76F
:104B1000C4FD18B99DF81810902901D0022004E7AF
:104B20000023E15CE9545B1CDBB2102BF9D3FCE6FB
:104B300010B586B0D4A003C8CDE90401FFF7FEFE8E
:104B4000C4B234B9D24B04AA03216020FFF770FF2E
:104B5000044624B969460220FFF7C5FF044634B96C
:104B6000D0A004F047FF10216846FFF72BFD06B0E8
:104B7000204610BDF8B501211020FBF77CFE012175
:104B80000820FBF778FE4FF47074ADF80040102554
:104B90008DF8035003208DF80200C54E694630465B
:104BA000FBF763FC21463046FBF7CEFC4020ADF816
:104BB000000048208DF80300BE4C69462046FBF7F4
:104BC00054FC8021ADF800108DF803506946204652
:104BD000FBF74BFCF8BD10B585B093218DF80410A0
:104BE00070218DF8051000218DF80A1001AA5418C3
:104BF000435CA3709DF80A30445C63408DF80A3032
:104C0000491CC9B20429F2D3D21D072101A8FFF71C
:104C1000D4FD08210846FFF734FD04A8009001AB3D
:104C2000092201A90C20FFF738FD18B99DF81000E2
:104C3000182802D0002005B010BD9DF80400FAE746
:104C4000002103E000BF00BF00BF491C8142F9D32F
:104C5000704700B51420FFF7F7FC800704D103214B
:104C600014205DF804EB00E500BD00B5412801D03B
:104C7000012000BD08210846FFF703FD3D2111205A
:104C8000FFF7D2FC86211720FFF7CEFC7F212620DC
:104C9000FFF7CAFC1E212D20FFF7C6FC00212C20A7
:104CA000FFF7C2FC8D212A20FFF7BEFC3E212B20FE
:104CB000FFF7BAFC4FF47A70FFF7C2FFFFF7C9FFA6
:104CC000002000BD03211420DBE400B57A4A012353
:104CD00013600A20FFF7B4FF002010600A20FFF7DE
:104CE000AFFF13600A20FFF7ABFF0F210120FFF792
:104CF0009BFC0F210120FFF797FC0A20FFF7A0FF84
:104D00003D211120FFF790FC1E212D20FFF78CFC88
:104D100000212C20FFF788FC8D212A20FFF784FC3E
:104D20003E212B20FFF780FC40211520FFF77CFC63
:104D3000002000BD10B5FFF71DFFFFF7C6FFFFF70E
:104D4000C1FF022001F00AF9FFF783FFBDE8104020
:104D500041208AE710B5FFF7B8FFFFF7B3FF022045
:104D600001F0FCF8BDE8104073E700B587B05020B3
:104D70008DF8040000208DF805000DF106020221D7
:104D800001A8FFF71AFD06A8009001AB042201A9B3
:104D90000C20FFF782FC07B0002000BD2DE9F04198
:104DA00086B0002638A003C8CDE90001FFF7C6FD94
:104DB000C0B220B141A004F01DFE06B070E645A0CF
:104DC00004F018FE4FF0030802AF08EB8600C1B2F2
:104DD0002F4B6A466020FFF72BFE80B146A004F0FF
:104DE00009FE761CF6B2102EEFD339A004F002FEB5
:104DF00037A004F0FFFD36A004F0FCFDDDE7002540
:104E000002A90020FFF76FFE2A4631463FA004F0BA
:104E1000F1FD43A004F0EEFD002443A0395D04F051
:104E2000E9FD641CE4B2062CF7D340A004F0E2FDD7
:104E300006243DA0395D04F0DDFD641CE4B20A2CBB
:104E4000F7D33DA004F0D6FD0A2437A0395D04F065
:104E5000D1FD641CE4B2102CF7D31DA004F0CAFDF0
:104E60006D1CEDB2042DCBD3BBE72DE9F04F89B01B
:104E70000026FFF763FDC0B220B110A004F0BAFD18
:104E800009B06AE45EE00000FFFFFFFFFFFF0000E3
:104E9000A4000020777269746520646174610D0A52
:104EA000000000007265616420646174610D0A0095
:104EB00000100140000C0140A40122424C6F6F6BB6
:104EC000696E6720666F72206661696C7572652015
:104ED0000D0A000066756E6374696F6E204E4F3167
:104EE0002052656164207468652063617264202EBD
:104EF0002E2E0D0A0000000077726F6E6720706121
:104F00007373776F7264200D0A00000053513A25C5
:104F100064202C20514B3A256420202020200000C2
:104F2000706173734109000025582000090956611A
:104F30006C7565090000000009097061737342090E
:104F4000000000003CA004F055FDDFF810814FF098
:104F5000030905AF0025FFF7F1FCC0B290B905EBDE
:104F6000450A3E4B08EB4A0409EB860B0BF0FF01A8
:104F70001B1F22466020FFF75BFDC0B1AFF2880027
:104F800004F038FD6D1CEDB20D2DE4D3761CF6B2A5
:104F9000102EDFD3AFF2C80004F02CFDAFF2D0002A
:104FA00004F028FDAFF2D80004F024FD68E70BF010
:104FB000FF0005A9FFF797FDE07861792279A378D2
:104FC000CDE90130CDE903216078009018F81A305E
:104FD0000322314622A004F00DFDAFF2BC0004F024
:104FE00009FD0024395DAFF2C00004F003FD641C2C
:104FF000E4B2062CF6D3AFF2CC0004F0FBFC06249E
:10500000395DAFF2DC0004F0F5FC641CE4B20A2C5C
:10501000F6D3AFF2DC0004F0EDFC0A24395DAFF208
:10502000F80004F0E7FC641CE4B2102CF6D3AFF2F5
:10503000601004F0DFFCA5E766756E6374696F6E3F
:10504000204E4F332050617373776F726420746504
:105050007374202E2E2E0D0A00000000A8000020E0
:1050600053513A2564202C20514B3A256420204B83
:1050700045593A25582025582025582025582025BF
:10508000582025582020200070B505460024384EB1
:1050900005E0641CE4B2C82C01D9002070BD0221D7
:1050A0003046FBF76CFD0028F3D0294635462846EC
:1050B000FBF719FD002405E0641CE4B2C82C01D9FB
:1050C000002070BD01212846FBF759FD0028F3D0D0
:1050D0002846FBF70AFDC0B270BD10B586B00121AD
:1050E0000820FBF7C8FB01218803FBF7CFFB4FF437
:1050F0006040ADF8140018208DF8170003208DF8DB
:10510000160005A91B48FBF7B0F90020ADF8000018
:105110004FF48271ADF80210ADF804000221ADF831
:1051200006100121ADF808104902ADF80A10ADF8DB
:105130000C00ADF80E000720ADF810000C4C6946CD
:105140002046FBF71BFC01212046FBF79CFCFF20BF
:10515000FFF79AFF06B010BD01460548028822F00D
:105160003802028002880A4302800121FBF78BBCCF
:1051700000380040000C01404FF4A060FBF7B0B8CD
:105180007FB504460D4601210220FBF77FFBADF8F9
:105190000840ADF804500024ADF80A40ADF80640D0
:1051A000344D01A92846FBF7FFFD01221146284690
:1051B000FCF7E5F81D218DF800108DF80140032162
:1051C0008DF8021001218DF803106846FBF78DF869
:1051D00001212846FCF7B9F87FBD10B5254C012107
:1051E0002046FCF7FFFA002843D001212046FCF7B7
:1051F00005FB214CA068401CA060217941B11E2113
:10520000B0FBF1F201FB120010B91C4800F04BFC9E
:105210001B4A107808B1401E10701A49087808B16E
:10522000401E0870107808B1401E1070607808B1F8
:10523000401E6070144A107808B1401E1070087843
:1052400008B1401E0870A07808B1401EA070E07838
:1052500008B1401EE070E0684FF6FA71884203D250
:10526000401CE060012060712078C82801D2401CF9
:10527000207010BD00040040FC000020D4B70008DE
:10528000120100201101002010010020034600E05F
:10529000401C0278002AFBD102E000F8012B491CD7
:1052A0000A78002AF9D100210170184670477FB5AD
:1052B00005460E46E1A090E80E00C0688DE80E009D
:1052C00003900024284603F0A9FD00220DE0A95C0C
:1052D00009096B461DF801103155A95C01F00F0159
:1052E000595C641C3155521C641C824202DAB4EBD6
:1052F000400FECDB7FBDD54908780028FDD00020A9
:10530000087000F00EBB10B5002303E0CC5CC45461
:105310005B1CDBB29342F9D310BDF0B50746002306
:1053200000200D4601E06D1C5B1C2C78002CFAD18E
:10533000D51A0EE000223E1906E0B05C11F802C05A
:10534000604509D10120521C9A42F6D39A4202D0FC
:10535000641CA542EED8F0BD0020F7E72DE9F04728
:1053600081468A460024BA4F3A700026B94D4FF460
:10537000FA7820E02878F0B1B7480078D8B92E70D4
:1053800042464946B548FFF7C8FF38B10124B34843
:1053900000F089FBB2A000F086FB0CE042465146CB
:1053A000AE48FFF7BAFF30B10124AC4800F07BFBF8
:1053B000ABA000F078FB14B938780028DAD138783F
:1053C000AC4D40B32E70ACA000F06DFB3878642477
:1053D000B0FBF4F0303000F042FB3878B0FBF4F171
:1053E00004FB11000A24B0FBF4F0303000F037FB6E
:1053F0003878B0FBF4F104FB1100303000F02FFBE3
:10540000A3A000F050FB642000F0A8FD287840B174
:105410000120BDE8F0879FA000F045FB0120287027
:10542000D1E70020F5E72DE9FF5F88460F9A0024B9
:1054300000274FF4FA71012804D0022808D003286D
:1054400011D10BE0834D844EDFF810A20F460AE025
:10545000974D984EDFF860A20F4604E0974D984EA6
:10546000DFF860A20F46DFF8E8B18BF800204FF0BC
:1054700000092CE02878F8B13078E8B985F8009078
:10548000B8F1020F03D0B8F1010F20D10DE03A4678
:1054900050460399FFF741FF70B13A4650460E99C6
:1054A000FFF73BFF40B1012411E03A465046039913
:1054B000FFF733FF08B1012409E00298022806D162
:1054C0003A4650460E99FFF728FF00B101241CB957
:1054D0009BF800000028CDD19BF800207A48654C4D
:1054E0004FF4005162B1FBF72FF884F8009064206C
:1054F00000F034FD207840B1012004B0BDE8F09FF9
:1055000001222270FBF722F8F1E70020F5E710B541
:105510004F4908704D4A117809B90028FCD1554C03
:10552000002140B121701170642000F017FD207837
:1055300020B1012010BD01202070F4E7002010BD33
:1055400070B50024424D28704FF4FA7609E03246D7
:105550005EA14248FFF7E1FE18B101245DA000F012
:10556000A2FA14B928780028F1D12878414C20B942
:105570000120207060A000F096FA642000F0EEFC9C
:10558000207808B1012070BD002070BD2DE9FC41DC
:1055900005460F46904600240026009601965CA121
:1055A000384603F023FC284603F038FC421D5AA17C
:1055B000684604F02FFA6946384603F017FC8DF868
:1055C000006056A1384603F011FC424654A16846DB
:1055D00004F020FA6946384603F008FC8DF80060B4
:1055E000284603F01BFC02464DA1684604F012FA5F
:1055F0006946384603F0FAFB8DF800600BE02A5D3F
:1056000049A1684604F006FA6946384603F0EEFB05
:105610008DF80060641C284603F000FCA042EED820
:1056200043A1384603F0E2FBBDE8FC8100220023E1
:1056300001E08354521C8A42FBD37047303132332D
:105640003435363738396162636465662401002079
:10565000FF0000201401002010010020DF060020C0
:10566000436F72726563742072657475726E210D7A
:105670000A0000000D010020436F756E745F7469AD
:105680006D655F776169745F6F6B203D200000007E
:105690000D0A0000466C61675F6465766963655F4B
:1056A0006572726F72203D2031200D0A00000000EB
:1056B0001501002011010020D30800201601002050
:1056C00012010020C70A00200010014072656164C9
:1056D0007900000077696669206D6F7564756C6587
:1056E000207265626F6F7420737563636573736690
:1056F000756C6C790D0A0000466C61675F646576B5
:105700006963655F6572726F72203D20310D0A001A
:1057100031392C302C312C00256400002C30320023
:105720002530347800000000253032780000000079
:105730002C3078303130300D0A0000007047FE49BF
:105740000A885206FCD5FC4AC1B2121D118070476E
:1057500030B587B00546012144F20500FBF78BF810
:1057600000210420FAF712FF4FF40071ADF8181071
:1057700003208DF81A0018208DF81B00EF4C06A9A5
:105780002046FAF772FE2115ADF8181004218DF8A5
:105790001B1006A92046FAF768FE25208DF80400A4
:1057A00000248DF805408DF8064001218DF8071082
:1057B00001A8FAF79AFD0295ADF80C40ADF80E403D
:1057C000ADF81040ADF814400C20ADF81200DA4CE2
:1057D00002A92046FCF75EF8012240F2255120463E
:1057E000FCF7DFF801212046FCF7CFF807B030BD09
:1057F00030B587B00546012144F20900FBF73BF8BC
:1058000001210420FAF7C2FE4021ADF81810032050
:105810008DF81A0018208DF81B00C94C06A92046E7
:10582000FAF723FE8021ADF8181004218DF81B1023
:1058300006A92046FAF719FE25208DF80400002459
:105840008DF805408DF8064001218DF8071001A85C
:10585000FAF74BFD0295ADF80C40ADF80E40ADF8EF
:105860001040ADF814400C20ADF81200B24C02A963
:105870002046FCF70FF8012240F225512046FCF7A4
:1058800090F801212046FCF780F8AFE710B5AA4C4C
:1058900001462046FCF7DAF880212046FCF743F960
:1058A0000028F9D010BD10B5044602E0FFF7EEFF66
:1058B000641C20780028F9D110BD70B505460C464F
:1058C00005E02878FFF7E2FF6D1C641EE4B2002CAF
:1058D000F7D170BD10B5044602E0FFF7D7FF641C96
:1058E00020780028F9D110BD10B5934C40F2255115
:1058F0002046FCF718F9002812D02046FCF7AAF839
:10590000914A904B11895854491C88B21081B0F5C6
:10591000FA7F01D300201081012010710220107045
:1059200010BD0020874A00214FF4FA731154401C27
:105930009842FBD384480181704708B54FF4E0607A
:10594000FAF7CEFC26208DF8000002208DF8010029
:105950008DF8020001208DF803006846FAF7C5FCB7
:1059600008BDF8B50424ADF8004003268DF80260A8
:1059700018258DF80350714F69463846FAF775FDC2
:105980000821ADF800108DF8034069463846FAF753
:105990006CFD2020ADF800008DF802608DF80350FA
:1059A0006A4D69462846FAF760FD4021ADF80010BF
:1059B0008DF8034069462846FAF757FDF8BD10B543
:1059C000012144F23500FAF756FFBDE810400121ED
:1059D0004FF00210FAF75ABF1FB50446FFF7EFFF6A
:1059E000FFF7BFFF00940020ADF80400ADF80600FB
:1059F000ADF80800ADF80C000C20ADF80A00544CCE
:105A000069462046FBF746FF012240F22551204619
:105A1000FBF7C7FF01212046FBF7B7FF1FBD10B5FD
:105A20000446FFF7CCFF00210820FAF7AFFDFFF78F
:105A300098FF2046FFF7D0FFBDE810407DE710B586
:105A40000446FFF7BCFF01210820FAF79FFDFFF78E
:105A500088FF2046FFF7C0FFBDE810406DE710B596
:105A60003B4CC1B22046FBF7F1FF80212046FCF7FA
:105A70005AF80028F9D010BD10B5044602E0FFF72F
:105A8000EEFF641C20780028F9D110BD70B50546E2
:105A90000C4605E02878FFF7E2FF6D1C641EE4B2B7
:105AA000002CF7D170BD10B5044602E0FFF7D7FF18
:105AB000641C20780028F9D110BD10B5254CC1B266
:105AC0002046FBF7C3FF80212046FCF72CF8002876
:105AD000F9D010BD70B51E4C40F225512046FCF7A0
